:100000000C9434000C9451000C9451000C94510049
:100010000C9451000C9451000C9451000C9451001C
:100020000C9451000C9451000C9451000C948303D7
:100030000C9451000C9451000C941A010C94510032
:100040000C9451000C9451000C9451000C945100EC
:100050000C9451000C9451000C9451000C945100DC
:100060000C9451000C94510011241FBECFEFD4E02A
:10007000DEBFCDBF11E0A0E0B1E0EEECF8E102C0E0
:1000800005900D92A031B107D9F714E0A0E1B1E0DD
:1000900001C01D92A331B107E1F70E9462020C94E6
:1000A000650C0C940000089510921101109210013B
:1000B00008950F931F93CF93DF938C010E94020743
:1000C00080911001909111019801280F391F42E091
:1000D0002A38340758F48217930740F4EC01CA5EBB
:1000E000DE4F309311012093100102C0C0E0D0E038
:1000F0000E94FE08CE01DF91CF911F910F910895CC
:10010000FC019C012D5F3F4F328321838FEF9FEFD6
:1001100094838383368325833087278310820895D1
:10012000FC01118610860895CF93DF93AC01DB01AB
:10013000EC0129813A81F9018281938113969C9384
:100140008E93129789819A8115969C938E9314971A
:100150000280F381E02D75836483E9017B836A83E8
:10016000FA017283618319965C934E93189780818C
:100170008F5F8083DF91CF910895CF93DF939C01B0
:10018000EB01488159818FEF4F3F580721F4F90166
:10019000A781B08510C0D901139604C012960D90A6
:1001A000BC91A02D1296ED91FC91139780819181C5
:1001B0004817590798F71296ED91FC911397FB8316
:1001C000EA83D583C483BD83AC831396DC93CE933B
:1001D000129739872887F90180818F5F8083DF91AB
:1001E000CF910895CF93DF93DC011296ED91FC91AE
:1001F000139714968D919C911597958384831496EB
:10020000CD91DC911597FB83EA831896ED91FC91D3
:100210001997818192818A179B0711F4D283C18338
:1002200019961C921E921897808181508083DF91CD
:10023000CF9108951F920F920FB60F9211248F93B2
:100240009F93AF93BF938091AD039091AE03A09124
:10025000AF03B091B0030196A11DB11D8093AD0312
:100260009093AE03A093AF03B093B003BF91AF914F
:100270009F918F910F900FBE0F901F90189514BCF7
:1002800015BC81E788BD85B5886085BD85B583606F
:1002900085BDEEE6F0E080818260808378940895E9
:1002A0001F93182FFA018091A6039091A703813024
:1002B0009105E1F58091AD039091AE03A091AF035C
:1002C000B091B0032091A8033091A9034091AA03F3
:1002D0005091AB03821B930BA40BB50B9B014427DE
:1002E00037FD4095542F82179307A407B50708F4EC
:1002F00049C08091AD039091AE03A091AF03B0913E
:10030000B0038093A8039093A903A093AA03B0938A
:10031000AB031093AC03F0930901E09308018091C3
:10032000A0039091A1030E94C5092CC0892B51F50F
:100330008091AD039091AE03A091AF03B091B00353
:1003400081E090E09093A7038093A6038091AD0392
:100350009091AE03A091AF03B091B0038093A80336
:100360009093A903A093AA03B093AB031093AC039B
:1003700050930901409308018091A0039091A1033B
:100380000E947C091F910895CF93DF93C8EED3E0BC
:10039000359907C081E090E068EB7BE048EC50E0E5
:1003A00008C0349909C082E090E060E777E140E25C
:1003B00053E00E945001ECCF15B81092AC0310929C
:1003C000A3031092A203D0930901C0930801809166
:1003D000A0039091A1030E94C5091092A703109257
:1003E000A6038091AD039091AE03A091AF03B091AD
:1003F000B0038093A8039093A903A093AA03B0939A
:10040000AB03C6CF0F931F93DF93CF9300D0CDB72D
:10041000DEB70E940D079A8389838E010F5F1F4FFD
:100420008091AC03813091F48091A2039091A30359
:10043000049721F41092A3031092A2038091A203C7
:100440009091A303FC01E050FF4F13C08230D9F418
:100450008091A2039091A303049721F41092A30327
:100460001092A2038091A2039091A303FC01EC5F80
:10047000FE4F20812093A4031092A5030196909330
:10048000A3038093A2036091080170910901C80140
:100490000E94470AC5CF0F931F93DF93CF9300D0DD
:1004A000CDB7DEB70E940D079A8389838E010F5F57
:1004B0001F4F8091A40385B9C80161E070E00E94DC
:1004C000470AF7CFEF92FF920F9314BC15BC81E758
:1004D00088BD85B5886085BD85B5836085BDEEE640
:1004E000F0E080818260808378948FEF84B982E02D
:1004F00092E060E070E045E550E020E030E003E0AD
:10050000EE24FF240E94380B84EC91E060E070E060
:1005100045E550E020E030E004E00E94380B8BE439
:1005200092E060E070E045E550E020E030E0E0EA95
:10053000EE2EE3E0FE2E0E94380B0E94270C80E096
:1005400090E00F91FF90EF900895FC0191E190836E
:1005500022E2229383E3829362937293129280E861
:100560008293129282E0829383E0829384E082936A
:1005700085E0829386E0829387E0829388E082938D
:1005800089E0829380E18293929382E1829383E176
:10059000829384E1829385E1829386E1829387E16D
:1005A000829388E1829389E1829380E2829381E25F
:1005B0008293229383E282934293529386E28293C0
:1005C00087E2829388E2829389E2829380E3829336
:1005D00081E382933197CF0108951092890089EFCA
:1005E000809388008BE080938100EFE6F0E08081CB
:1005F00082608083A091B103B091B203CD91CDBF51
:10060000DD91DEBFFF91EF91DF91CF91BF91AF916F
:100610009F918F917F916F915F914F913F912F911A
:100620001F910F91FF90EF90DF90CF90BF90AF9010
:100630009F908F907F906F905F904F903F902F9002
:100640001F900F900FBE0F90089581E008950895B8
:100650000F920FB6F8940F921F9211242F923F928F
:100660004F925F926F927F928F929F92AF92BF92C2
:10067000CF92DF92EF92FF920F931F932F933F93AE
:100680004F935F936F937F938F939F93AF93BF939A
:10069000CF93DF93EF93FF93A091B103B091B20397
:1006A0000DB60D920EB60D920E94F2070E94200721
:1006B000A091B103B091B203CD91CDBFDD91DEBF6A
:1006C000FF91EF91DF91CF91BF91AF919F918F916A
:1006D0007F916F915F914F913F912F911F910F915A
:1006E000FF90EF90DF90CF90BF90AF909F908F9052
:1006F0007F906F905F904F903F902F901F900F9042
:100700000FBE0F9008950E94280318950F920FB600
:10071000F8940F921F9211242F923F924F925F9262
:100720006F927F928F929F92AF92BF92CF92DF9201
:10073000EF92FF920F931F932F933F934F935F93EB
:100740006F937F938F939F93AF93BF93CF93DF93D9
:10075000EF93FF93A091B103B091B2030DB60D9248
:100760000EB60D920E942007A091B103B091B20382
:10077000CD91CDBFDD91DEBFFF91EF91DF91CF91A4
:10078000BF91AF919F918F917F916F915F914F91A9
:100790003F912F911F910F91FF90EF90DF90CF909D
:1007A000BF90AF909F908F907F906F905F904F9091
:1007B0003F902F901F900F900FBE0F900895FC0157
:1007C0000FB6F8940F92828D0F900FBE0895FC0122
:1007D000828D0895FC01828D90E0882309F491E0D8
:1007E000892F0895FC01928D20E0838D981709F4DC
:1007F00021E0822F08950F931F938C01FC018081CB
:1008000091810E945300C8010E9453001F910F91D3
:1008100008950F931F93CF93DF93EC01FB018A019F
:100820008A8D882381F14881598141155105A9F0AC
:100830008C8D2E813F81280F311D3F832E838A812D
:100840009B812817390710F05F834E834C8D6E8192
:100850007F81CF0150E00E94460C8A8D81508A8FA3
:100860008D8D8F3F69F48885882361F0CE010896CD
:100870000E94AF07882331F081E0F801808303C034
:100880008F5F8D8F81E0DF91CF911F910F91089540
:10089000CF93DF93EC01842F4C8D4423A1F1882367
:1008A000B1F48C819D8150E00E94460C8C8D2C818E
:1008B0003D81280F311D3D832C838A819B81281720
:1008C000390708F1888199819D838C831CC08E81B2
:1008D0009F8150E00E94460C8C8D90E04427552764
:1008E000481B590B8E819F81840F951F9F838E8398
:1008F000288139818217930730F48A819B81840F84
:10090000951F9F838E838A8D8F5F8A8FDF91CF9112
:1009100008950F931F93CF93DF93EC018A019A8D73
:100920008B8D981710F080E017C0CE01422F0E94E7
:1009300048048E8D8F3F69F48989882361F0CE0148
:1009400041960E94AF07882331F081E0F80180834F
:1009500003C08F5F8E8F81E0DF91CF911F910F9148
:1009600008950F931F93CF93DF93EC010FB6F89484
:100970000F928C010F5E1F4F0DC08989882369F08B
:10098000C8010E94AF07882311F00E94AB078E8D2B
:1009900081508E8F8E8D181684F38FEF8E8F0F906F
:1009A0000FBE0FB6F8940F928E01085F1F4F0DC057
:1009B0008885882369F0C8010E94AF07882311F059
:1009C0000E94AB078D8D81508D8F8D8D181684F30D
:1009D0008FEF8D8F0F900FBEDF91CF911F910F91F1
:1009E00008953F924F925F926F927F928F929F9263
:1009F000AF92BF92CF92DF92EF92FF920F931F932D
:100A0000DF93CF9300D000D000D0CDB7DEB78C01FC
:100A1000362E472E5D834C83522E21E1A22EB12C1F
:100A2000A80EB91E98E0892E912C800E911E81E0AF
:100A30008E8384E0682E712C6C0E7D1E6E010894EE
:100A4000C11CD11C8C819D81892B09F43AC00E9464
:100A500002070FB6F8940F92F801858D8F3F09F4C5
:100A6000158EF801868D8F3F09F4168E0F900FBEFC
:100A7000FE81F13019F4C6010E9462070FB6F894A6
:100A80000F92F801828D0F900FBE8823A9F4C60142
:100A9000B3010E946D07882379F46C817D81C501C3
:100AA0000E94B608C8010E94B1040E94FE08882373
:100AB00041F40E94860305C0C8010E94B1040E944F
:100AC000FE080FB6F8940F92F801828D882311F476
:100AD000FF243CC0F801E680F78040815181411538
:100AE0005105B1F0848D9701280F311D378326837E
:100AF000828193812817390710F057834683F801C4
:100B0000448D66817781832D942D50E00E94460CA0
:100B1000552069F4F801828D8150828F8085882369
:100B200099F0C4010E94AF07813071F40BC0F80145
:100B3000F782E6828189882339F0C5010E94AF07D8
:100B4000882311F00E948603FF24F3940F900FBEB8
:100B5000FF2019F0FF24F3940DC08C819D81892B17
:100B600049F0C601B3010E946D07FFEFFE838823A1
:100B700009F468CF8F2D26960FB6F894DEBF0FBE0E
:100B8000CDBFCF91DF911F910F91FF90EF90DF903C
:100B9000CF90BF90AF909F908F907F906F905F901D
:100BA0004F903F9008954F925F926F927F928F92F5
:100BB0009F92AF92BF92CF92DF92EF92FF920F93EC
:100BC0001F93DF93CF9300D000D000D0CDB7DEB716
:100BD0008C013B015D834C83E22E58E0852E912CE5
:100BE000880E991E41E1A42EB12CA80EB91E81E0F9
:100BF0008E8334E0432E512C4C0E5D1E6E01089402
:100C0000C11CD11C8C819D81892B09F43CC00E94A0
:100C100002070FB6F8940F92F801858D8F3F09F403
:100C2000158EF801868D8F3F09F4168E0F900FBE3A
:100C3000FE81F13019F4C6010E9462070FB6F894E4
:100C40000F92F801928D0F900FBEF801838D9817C7
:100C5000A9F4C601B2010E946D07882379F46C8162
:100C60007D81C4010E94B608C8010E94B1040E949F
:100C7000FE08882341F40E94860305C0C8010E9433
:100C8000B1040E94FE080FB6F8940F92F801928DFD
:100C9000838D981710F0FF2412C0C801B3014E2DA8
:100CA0000E944804F8018189882339F0C5010E9417
:100CB000AF07813011F40E948603FF24F3940F9054
:100CC0000FBEFF2019F0FF24F3940DC08C819D818D
:100CD000892B49F0C601B2010E946D07FFEFFE8328
:100CE000882309F48FCF8F2D26960FB6F894DEBF98
:100CF0000FBECDBFCF91DF911F910F91FF90EF906D
:100D0000DF90CF90BF90AF909F908F907F906F902B
:100D10005F904F9008958F929F92AF92BF92CF9223
:100D2000DF92EF92FF920F931F93CF93DF93982E52
:100D3000862E882309F442C08FE190E00E9459007A
:100D40008C01EC010097E1F1C92CDD24A82CBB2417
:100D5000AC9C7001AD9CF00CBC9CF00C1124C70144
:100D600001960E9459009C0199838883009719F18C
:100D7000E80EF91EFB82EA821A8E9D838C8308940A
:100D8000C108D108CA9CC001CB9C900DDA9C900D83
:100D90001124280F391F3F832E839B8E8C8E8FEF5B
:100DA0008D8F8E8FC80108960E948000C8014196E1
:100DB0000E94800005C0C8010E945300C0E0D0E03E
:100DC000CE01DF91CF911F910F91FF90EF90DF90B7
:100DD000CF90BF90AF909F908F900895FC01828537
:100DE00093858A50944059F48489958923E0883FFB
:100DF000920729F020E0892B19F421E001C020E0BE
:100E0000822F08950FB6F8940F928091B7038F5FE9
:100E10008093B7030F900FBE08950FB6F8940F920A
:100E20002091B5033091B6030F900FBEC90108950C
:100E30000FB6F8940F928091BA030F900FBE0895E9
:100E40008091B703882351F081E08093B303089524
:100E50008091B80381508093B80301C099E0E0917C
:100E6000B803E99FF0011124E254FC4F80818823EC
:100E700079F39091B80389E0989FD0011124A2548E
:100E8000BC4F1196ED91FC9112970280F381E02DF9
:100E90001296FC93EE931197CD010396E817F9078C
:100EA00031F48281938112969C938E9311971196BF
:100EB000ED91FC911297868197819093B203809374
:100EC000B1030895FC018091B40380838091B50340
:100ED0009091B603928381830895FC01DB010FB6E4
:100EE000F8940F924D915C9111978FEF4F3F5807F7
:100EF00061F19091B4038081981749F02091B50376
:100F00003091B603818192812817390700F58091CD
:100F1000B5039091B60321813281821B930B841714
:100F20009507A8F48091B5039091B603281B390B5F
:100F3000240F351F2D933C938091B40380838091BF
:100F4000B5039091B6039283818380E001C081E074
:100F50000F900FBE089581E08093B30308950F931F
:100F60001F93CF93DF93FC018081882319F4C0E0A5
:100F7000D0E005C00580F681E02DC681D7818E01C5
:100F8000045F1F4FC8010E94F2008091B7038823BD
:100F9000A1F48E010E5F1F4FC8010E94F2009E89CE
:100FA0008091B803891710F49093B80389E0989F53
:100FB000C001112482549C4F02C088EF93E0B80115
:100FC0000E949400E091B103F091B20320E09E8969
:100FD0008689981708F021E0822FDF91CF911F9129
:100FE0000F910895FF920F931F93CF93DF938091FA
:100FF000B703882309F061C08091B5039091B603CF
:1010000001969093B6038093B5038091B5039091B8
:10101000B603892BE9F58091F4039091F5032091B3
:10102000F6033091F7033093F5032093F403909384
:10103000F7038093F6038091B4038F5F8093B4032A
:1010400027C02091B5033091B6038A819B81281770
:101050003907C0F18E010E5F1F4FC8010E94F200D8
:101060008C899D89892B21F0CE010C960E94F2007B
:101070009E898091B803891710F49093B8039F9DBF
:10108000C001112482549C4FB8010E94940002C0F8
:1010900089E0F82EE091F403F091F5038081882334
:1010A00089F0E091F403F091F5030580F681E02DDD
:1010B000C681D781209729F605C08091B9038F5F3B
:1010C0008093B903DF91CF911F910F91FF90089505
:1010D000DF92EF92FF920F931F93CF93DF93EC0178
:1010E0008A859B858A50944091F58C899D8923E05F
:1010F000883F920761F1892B51F533C0DE88E0917A
:10110000B103F091B203068992E0E92EF12CEC0EC6
:10111000FD1EC7010E94F2006E898091B8038617F8
:1011200010F46093B80310E0D01608F011E089E0E5
:10113000689FC001112482549C4FB7010E94940003
:1011400007C02C9688EF93E0BE010E94940010E047
:10115000812FDF91CF911F910F91FF90EF90DF9042
:1011600008958091B703882349F2EBCFCF93DF93A3
:10117000EB016091B1037091B203645F7F4F0E94F5
:10118000BD008091B1039091B20302960E94F200DB
:101190008FEFCF3FD80759F46091B1037091B2033C
:1011A0006E5F7F4F8AE094E00E94940024C080919B
:1011B000B5039091B6038C0F9D1FE091B103F091A0
:1011C000B203938382832091B5033091B6038217D3
:1011D000930728F48091F6039091F70304C080915F
:1011E000F4039091F5036091B1037091B2036E5FC7
:1011F0007F4F0E94BD00DF91CF910895CF92DF9283
:10120000FF920F931F93DF93CF930F92CDB7DEB76B
:101210000FB6F8940F928091B70381508093B70373
:101220008091B703882309F05BC08091BA038823BB
:1012300009F456C0198229E0F22E27C0C6010C9687
:101240000E94F20086010E5F1F4FC8010E94F2004B
:10125000D60156969C918091B803891710F490930B
:10126000B8039F9DC001112482549C4FB8010E9475
:101270009400E091B103F091B203D60156969C918F
:101280008689981710F0B1E0B9838091F80388231C
:1012900049F0E091FD03F091FE03C680D780C114B0
:1012A000D10461F68091B903882341F40CC00E94F7
:1012B000F2078091B90381508093B9038091B903FB
:1012C0008823A9F707C0E981E13021F08091B303B9
:1012D000813031F41092B3030E94860381E001C093
:1012E00080E00F900FBE0F90CF91DF911F910F9173
:1012F000FF90DF90CF9008950F931F93CF93DF93CC
:10130000EC01009709F43CC08091B1039091B203C5
:10131000C817D907A9F10FB6F8940F928A859B8553
:101320008A509440F1F48C899D8923E0883F92078C
:10133000C1F0892BB1F418C09093B80389E0989F4D
:10134000C001112482549C4FB8010E949400E09186
:10135000B103F091B2039E898689981710F00E941C
:1013600086030F900FBE0CC08E010E5F1F4FC80189
:101370000E94F2009E898091B8038917E8F2DECFBF
:10138000DF91CF911F910F910895EF92FF920F93EC
:101390001F93CF93DF938C010FB6F8940F92809137
:1013A000B1039091B2030817190719F400E010E097
:1013B00003C00115110529F4C091B103D091B20306
:1013C00001C0E80132E0E32EF12CEC0EFD1EC70156
:1013D0000E94F2008C899D89892B21F0CE010C9608
:1013E0000E94F2008AE094E0B7010E9494000F90FE
:1013F0000FBE012B11F40E948603DF91CF911F9144
:101400000F91FF90EF9008950F931F939C01009709
:10141000C9F10FB6F8940F928091B7038F5F809354
:10142000B7030F900FBE0091B5031091B603020FE2
:10143000131F8091B1039091B20302960E94F200B3
:10144000E091B103F091B203138302838091B5035D
:101450009091B6030817190728F48091F60390912C
:10146000F70304C08091F4039091F5036091B103F8
:101470007091B2036E5F7F4F0E94BD000E94FE0814
:10148000882311F40E9486031F910F910895CF9332
:10149000DF93FC01EB010FB6F8940F928091B70334
:1014A0008F5F8093B7030F900FBE20813181C20FF1
:1014B000D31F8091B5039091B6038217930728F448
:1014C000C217D30728F020E00CC0C217D30740F0A2
:1014D0008091B5039091B60320E08C179D0708F426
:1014E00021E0D183C083222329F18091B10390911F
:1014F000B20302960E94F200E091B103F091B203B0
:10150000D383C2838091B5039091B603C817D907DE
:1015100028F48091F6039091F70304C08091F403BE
:101520009091F5036091B1037091B2036E5F7F4FAC
:101530000E94BD000E94FE08882311F40E948603C9
:10154000DF91CF910895EF92FF920F931F93CF9366
:10155000DF938C010FB6F8940F928091B1039091B4
:10156000B2030817190719F400E010E003C00115D1
:10157000110529F4C091B103D091B20301C0E80173
:1015800042E0E42EF12CEC0EFD1EC7010E94F20099
:101590008C899D89892B21F0CE010C960E94F20046
:1015A00081E094E0B7010E9494008091BC038F5FBA
:1015B0008093BC030F900FBE8091BB03882321F062
:1015C000012B11F40E948603DF91CF911F910F919F
:1015D000FF90EF900895F8941092BB030E942703A8
:1015E00008951F93CF93DF938091BC03882309F460
:1015F00037C00FB6F8940F928091B7038F5F809336
:10160000B7030F900FBE109101040E94FE08112332
:1016100039F10FB6F8940F9280910104882319F4E0
:10162000C0E0D0E006C0E0910604F0910704C68156
:10163000D781CE0102960E94F2008091BA038150B8
:101640008093BA038091BC0381508093BC030F90B8
:101650000FBE8F89988D0E945300CE010E945300C7
:101660008091BE03823008F4BFCF0E948603BCCFB6
:101670002F923F924F925F926F927F929F92AF9282
:10168000BF92CF92DF92EF92FF920F931F93CF936F
:10169000DF932C015B016A013901902E170181E271
:1016A00090E00E945900EC01009751F0C6010E94A1
:1016B0005900988F8F8B009729F4CE010E94530018
:1016C0008FEFB3C065EA70E0A6010E944F0CCE0117
:1016D0004996B50148E050E00E94560C18A283E0FC
:1016E000891508F403E00E8B62E0A62EB12CAC0E37
:1016F000BD1EC5010E949000CE010C960E94900074
:10170000D987C88784E090E0801B91099D878C87EA
:10171000DB8BCA8B0894C108D1088F89988D8C0DFA
:101720009D1DB201A3010E94A502998388830FB673
:10173000F8940F928091BA038F5F8093BA038091DF
:10174000BA038130A9F5D093B203C093B1038EEBF5
:1017500093E00E94800087EC93E00E94800080ED7F
:1017600093E00E94800089ED93E00E94800052EE99
:10177000E52E53E0F52EC7010E9480000BEE13E02A
:10178000C8010E94800088EF93E00E94800081E001
:1017900094E00E9480008AE094E00E948000F09231
:1017A000F503E092F4031093F7030093F6030FC0E0
:1017B0008091BB03882359F4E091B103F091B20307
:1017C0008689981620F0D093B203C093B1039E8906
:1017D0008091BD03891710F49093BD039E89809179
:1017E000B803891710F49093B8038E8929E0829F7B
:1017F000C001112482549C4FB5010E9494000F90A7
:101800000FBE2114310419F0F101D183C0838091FE
:10181000BB03882349F0E091B103F091B2038689BC
:10182000891510F40E94860381E0DF91CF911F910A
:101830000F91FF90EF90DF90CF90BF90AF909F906F
:101840007F906F905F904F903F902F900895EF9210
:10185000FF920F9381EF9AE06AE071E045E550E076
:1018600020E030E000E0EE24FF240E94380B8130BD
:1018700049F4F8948093BB031092B6031092B50319
:101880000E94ED020F91FF90EF900895FB01DC01A3
:1018900002C001900D9241505040D8F70895DC01EC
:1018A00001C06D9341505040E0F70895FB01DC0109
:1018B0004150504048F001900D920020C9F701C0FE
:0E18C0001D9241505040E0F70895F894FFCF7C
:1018CE00240A140303140A24640049444C450000FE
:00000001FF
